:1000000010C02AC029C028C027C027C025C024C0CE
:1000100023C022C021C020C01FC01EC01DC01CC0E4
:100020001BC011241FBECFE5D1E0DEBFCDBF10E065
:10003000A0E6B0E0E2EDF6E002C005900D92A23637
:10004000B107D9F710E0A2E6B0E001C01D92AE37CB
:10005000B107E1F754D13BC3D3CF1F920F920FB634
:100060000F9211242F938F939F9380916200909110
:100070006300019690936300809362008091620018
:100080009091630082519A4738F010926300109269
:10009000620081E08093640080916F008F5F8093A5
:1000A0006F00809162009091630089509D4329F414
:1000B00080916600882309F4DB9880916F00882383
:1000C000A1F480916D00882381F08091700080936D
:1000D0007C00809171008093780080916000809313
:1000E0007900D89A88B3836088BB90916F00809123
:1000F0007C00981709F4C09890916F008091780067
:10010000981709F4C19890916F0080917900981721
:1001100009F4D8988091720090917300885E9340A2
:1001200048F480917200909173000196909373004F
:10013000809372008091740090917500805D97406B
:1001400048F4809174009091750001969093750029
:10015000809374009F918F912F910F900FBE0F90FD
:100160001F9018959F92AF92BF92CF92DF92EF921D
:10017000FF920F931F93809161008F3F19F48EEFD0
:10018000809361008091610087FD3DC060916100B6
:1001900070E080E090E028EE33E040E050E05CD298
:1001A0002FE730E040E050E070D279018A012091E1
:1001B0007B0030E040E050E0C801B7014DD228EEAE
:1001C00033E040E050E061D22093700020917D0048
:1001D00030E040E050E0C801B7013ED228EE33E005
:1001E00040E050E052D22093710020917A0030E03C
:1001F00040E050E0C801B7012FD228EE33E040E0E4
:1002000050E043D260C06091610070E080E090E017
:1002100028EE33E040E050E01FD26851704F81403B
:1002200090402FE730E040E050E02FD279018A0182
:1002300090907B0080917B009FEFA92EB12CC12C68
:10024000D12CA6019501281B310941095109C8018A
:10025000B70102D228EE33E040E050E016D2290D7B
:10026000311D411D511D2093700090907D008091A3
:100270007D00A6019501281B310941095109C801DA
:10028000B701EAD128EE33E040E050E0FED1290D7D
:10029000311D411D511D2093710090907A00809175
:1002A0007A00A81AB108C108D108C801B701A6018F
:1002B0009501D2D128EE33E040E050E0E6D1290D9F
:1002C000311D411D511D209360001F910F91FF9022
:1002D000EF90DF90CF90BF90AF909F900895E199FD
:1002E000FECF1CBA1FBA8EBB6DBBE29AE19A08958D
:1002F000E199FECF1FBA8EBBE09A8DB30895FF92AD
:100300000F931F9393E290BF89E083BF86E486BF7B
:100310009CBF89E18EBD80E28CB98FEF90E095BDE6
:1003200084BDD99AD39AD09A87B3836087BB80E083
:10033000DFDF80936D0081E0DBDF8093700082E07F
:10034000D7DF8093710083E0D3DF809360008091DA
:10035000700080937B008091710080937D0080917C
:10036000600080937A0084E0C3DF80936100FADE4E
:10037000789411E00FE7FF24FA9480916700909140
:100380006800A0916900B0916A00805C984AA04022
:10039000B04010F010926C0080916C00882311F036
:1003A000D79A01C0D79880916400882309F444C08B
:1003B00010926400809165008F3F49F08091660043
:1003C000882329F4809165008F5F80936500809178
:1003D0006500823061F080916500843041F0809149
:1003E0006500863021F080916500883029F4809185
:1003F0006E00882309F4DB9A809167009091680071
:10040000A0916900B0916A00805C984AA040B04019
:1004100098F48091670090916800A0916900B09174
:100420006A000196A11DB11D80936700909368003A
:10043000A0936900B0936A0080916E00882309F44C
:100440005BC08091720090917300885E934009F0C8
:1004500053C0109273001092720080917700823026
:10046000F9F0833030F4882359F0813009F044C02A
:100470000FC0843039F18430D8F08530E9F531C0CF
:10048000809171008F5F809371008091710021C015
:1004900080916000815080936000809160000FC067
:1004A000809170008F5F809370008091700011C008
:1004B0008091710081508093710080917100882338
:1004C000D9F409C0809160008F5F809360008091B3
:1004D00060008F3F89F4809177008F5F8093770071
:1004E0000BC08091700081508093700080917000EB
:1004F000882311F41092770080917600882389F088
:100500008091740090917500805D974051F4109235
:100510007500109274008091610081508093610099
:1005200021DEC99B6EC01092660080916B0088230B
:1005300009F462C080916E00882309F05DC080914B
:100540007600882309F058C0809165008230A0F0C1
:1005500080916500843080F480916C0090E0882365
:1005600009F491E090936C0010926700109268007B
:100570001092690010926A0080916500843080F0CA
:1005800080916500863060F480916D0090E0882352
:1005900009F491E090936D0060916D0080E09FDE22
:1005A00080916500863090F080916500883070F40D
:1005B00010936D0010936E00F09260001092700026
:1005C0001092710010927700009361008091650095
:1005D000883090F010936D001093760081E088DEF3
:1005E00080937B0082E084DE80937D0083E080DE68
:1005F00080937A00009361001092650010926B0066
:10060000BCCE10936B0080916E00882329F48091FA
:100610007600882309F4B1CE10927600109366001C
:1006200060916D0080E05BDE80916E00882361F058
:100630006091700081E053DE6091710082E04FDED6
:100640006091600083E04BDE6091610084E047DEF2
:1006500010926E00DB9A91CEFF27EE27BB27AA27C8
:1006600060FF04C0A20FB31FE41FF51F220F331F4A
:10067000441F551F969587957795679589F700973D
:10068000760771F7CF01BD010895A1E21A2EAA1BCA
:10069000BB1BFD010DC0AA1FBB1FEE1FFF1FA21732
:1006A000B307E407F50720F0A21BB30BE40BF50B2F
:1006B000661F771F881F991F1A9469F760957095B8
:1006C000809590959B01AC01BD01CF010895F894F0
:0206D000FFCF5A
:0206D200FF7FA8
:00000001FF
